{
  "contractName": "RockPaperScissors",
  "abi": [
    {
      "inputs": [],
      "name": "BET_MIN",
      "outputs": [
        {
          "internalType": "uint256",
          "name": "",
          "type": "uint256"
        }
      ],
      "stateMutability": "view",
      "type": "function",
      "constant": true
    },
    {
      "inputs": [],
      "name": "REVEAL_TIMEOUT",
      "outputs": [
        {
          "internalType": "uint256",
          "name": "",
          "type": "uint256"
        }
      ],
      "stateMutability": "view",
      "type": "function",
      "constant": true
    },
    {
      "inputs": [],
      "name": "initialBet",
      "outputs": [
        {
          "internalType": "uint256",
          "name": "",
          "type": "uint256"
        }
      ],
      "stateMutability": "view",
      "type": "function",
      "constant": true
    },
    {
      "inputs": [],
      "name": "register",
      "outputs": [
        {
          "internalType": "uint256",
          "name": "",
          "type": "uint256"
        }
      ],
      "stateMutability": "payable",
      "type": "function",
      "payable": true
    },
    {
      "inputs": [
        {
          "internalType": "bytes32",
          "name": "encrMove",
          "type": "bytes32"
        }
      ],
      "name": "play",
      "outputs": [
        {
          "internalType": "bool",
          "name": "",
          "type": "bool"
        }
      ],
      "stateMutability": "nonpayable",
      "type": "function"
    },
    {
      "inputs": [
        {
          "internalType": "string",
          "name": "clearMove",
          "type": "string"
        }
      ],
      "name": "reveal",
      "outputs": [
        {
          "internalType": "enum RockPaperScissors.Moves",
          "name": "",
          "type": "uint8"
        }
      ],
      "stateMutability": "nonpayable",
      "type": "function"
    },
    {
      "inputs": [],
      "name": "getOutcome",
      "outputs": [
        {
          "internalType": "enum RockPaperScissors.Outcomes",
          "name": "",
          "type": "uint8"
        }
      ],
      "stateMutability": "nonpayable",
      "type": "function"
    },
    {
      "inputs": [],
      "name": "getContractBalance",
      "outputs": [
        {
          "internalType": "uint256",
          "name": "",
          "type": "uint256"
        }
      ],
      "stateMutability": "view",
      "type": "function",
      "constant": true
    },
    {
      "inputs": [],
      "name": "whoAmI",
      "outputs": [
        {
          "internalType": "uint256",
          "name": "",
          "type": "uint256"
        }
      ],
      "stateMutability": "view",
      "type": "function",
      "constant": true
    },
    {
      "inputs": [],
      "name": "bothPlayed",
      "outputs": [
        {
          "internalType": "bool",
          "name": "",
          "type": "bool"
        }
      ],
      "stateMutability": "view",
      "type": "function",
      "constant": true
    },
    {
      "inputs": [],
      "name": "bothRevealed",
      "outputs": [
        {
          "internalType": "bool",
          "name": "",
          "type": "bool"
        }
      ],
      "stateMutability": "view",
      "type": "function",
      "constant": true
    },
    {
      "inputs": [],
      "name": "revealTimeLeft",
      "outputs": [
        {
          "internalType": "int256",
          "name": "",
          "type": "int256"
        }
      ],
      "stateMutability": "view",
      "type": "function",
      "constant": true
    }
  ],
  "bytecode": "0x608060405234801561001057600080fd5b5061180e806100206000396000f3fe6080604052600436106100a75760003560e01c806351dcb1c31161006457806351dcb1c3146101b35780636f9fb98a146101de5780637e7e4b4714610209578063807c850414610234578063c7a1865b1461025f578063da91254c1461029c576100a7565b80631aa3a008146100ac5780631d73c64c146100ca5780632626ab08146100f55780633d6ae3a71461012057806343445ca81461014b5780634c26124714610176575b600080fd5b6100b46102c7565b6040516100c191906114aa565b60405180910390f35b3480156100d657600080fd5b506100df6104ff565b6040516100ec91906114aa565b60405180910390f35b34801561010157600080fd5b5061010a610505565b60405161011791906114aa565b60405180910390f35b34801561012c57600080fd5b50610135610511565b60405161014291906114aa565b60405180910390f35b34801561015757600080fd5b50610160610517565b60405161016d919061143e565b60405180910390f35b34801561018257600080fd5b5061019d6004803603810190610198919061131a565b610595565b6040516101aa9190611459565b60405180910390f35b3480156101bf57600080fd5b506101c8610884565b6040516101d5919061148f565b60405180910390f35b3480156101ea57600080fd5b506101f36108ba565b60405161020091906114aa565b60405180910390f35b34801561021557600080fd5b5061021e6108c2565b60405161022b9190611474565b60405180910390f35b34801561024057600080fd5b50610249610c33565b604051610256919061143e565b60405180910390f35b34801561026b57600080fd5b50610286600480360381019061028191906112c0565b610c54565b604051610293919061143e565b60405180910390f35b3480156102a857600080fd5b506102b1610e00565b6040516102be91906114aa565b60405180910390f35b6000670de0b6b3a76400003410156102de57600080fd5b6000805414806102f057506000543410155b6102f957600080fd5b600260009054906101000a900473ffffffffffffffffffffffffffffffffffffffff1673ffffffffffffffffffffffffffffffffffffffff163373ffffffffffffffffffffffffffffffffffffffff16141580156103a55750600360009054906101000a900473ffffffffffffffffffffffffffffffffffffffff1673ffffffffffffffffffffffffffffffffffffffff163373ffffffffffffffffffffffffffffffffffffffff1614155b6103ae57600080fd5b600073ffffffffffffffffffffffffffffffffffffffff16600260009054906101000a900473ffffffffffffffffffffffffffffffffffffffff1673ffffffffffffffffffffffffffffffffffffffff1614156104565733600260006101000a81548173ffffffffffffffffffffffffffffffffffffffff021916908373ffffffffffffffffffffffffffffffffffffffff16021790555034600081905550600190506104fc565b600073ffffffffffffffffffffffffffffffffffffffff16600360009054906101000a900473ffffffffffffffffffffffffffffffffffffffff1673ffffffffffffffffffffffffffffffffffffffff1614156104f75733600360006101000a81548173ffffffffffffffffffffffffffffffffffffffff021916908373ffffffffffffffffffffffffffffffffffffffff160217905550600290506104fc565b600090505b90565b60005481565b670de0b6b3a764000081565b61025881565b600080600381111561052c5761052b6116e7565b5b600660009054906101000a900460ff16600381111561054e5761054d6116e7565b5b1415801561059057506000600381111561056b5761056a6116e7565b5b600660019054906101000a900460ff16600381111561058d5761058c6116e7565b5b14155b905090565b6000600260009054906101000a900473ffffffffffffffffffffffffffffffffffffffff1673ffffffffffffffffffffffffffffffffffffffff163373ffffffffffffffffffffffffffffffffffffffff1614806106405750600360009054906101000a900473ffffffffffffffffffffffffffffffffffffffff1673ffffffffffffffffffffffffffffffffffffffff163373ffffffffffffffffffffffffffffffffffffffff16145b61064957600080fd5b6000801b6004541415801561066357506000801b60055414155b61066c57600080fd5b60006002836040516020016106819190611427565b60405160208183030381529060405260405161069d9190611410565b602060405180830381855afa1580156106ba573d6000803e3d6000fd5b5050506040513d601f19601f820116820180604052508101906106dd91906112ed565b905060006106ea84610ec8565b60038111156106fc576106fb6116e7565b5b905060006003811115610712576107116116e7565b5b816003811115610725576107246116e7565b5b14156107365760009250505061087f565b600260009054906101000a900473ffffffffffffffffffffffffffffffffffffffff1673ffffffffffffffffffffffffffffffffffffffff163373ffffffffffffffffffffffffffffffffffffffff16148015610794575060045482145b156107c85780600660006101000a81548160ff021916908360038111156107be576107bd6116e7565b5b0217905550610866565b600360009054906101000a900473ffffffffffffffffffffffffffffffffffffffff1673ffffffffffffffffffffffffffffffffffffffff163373ffffffffffffffffffffffffffffffffffffffff16148015610826575060055482145b1561085a5780600660016101000a81548160ff021916908360038111156108505761084f6116e7565b5b0217905550610865565b60009250505061087f565b5b6000600154141561087957426001819055505b80925050505b919050565b600080600154146108b157426102586001546108a09190611547565b6108aa919061159d565b90506108b7565b61025890505b90565b600047905090565b60008060038111156108d7576108d66116e7565b5b600660009054906101000a900460ff1660038111156108f9576108f86116e7565b5b1415801561093b575060006003811115610916576109156116e7565b5b600660019054906101000a900460ff166003811115610938576109376116e7565b5b14155b806109635750600060015414158015610962575061025860015461095f9190611547565b42115b5b61096c57600080fd5b6000600660019054906101000a900460ff1660038111156109905761098f6116e7565b5b600660009054906101000a900460ff1660038111156109b2576109b16116e7565b5b14156109c15760039050610bc1565b600160038111156109d5576109d46116e7565b5b600660009054906101000a900460ff1660038111156109f7576109f66116e7565b5b148015610a365750600380811115610a1257610a116116e7565b5b600660019054906101000a900460ff166003811115610a3457610a336116e7565b5b145b80610ab3575060026003811115610a5057610a4f6116e7565b5b600660009054906101000a900460ff166003811115610a7257610a716116e7565b5b148015610ab2575060016003811115610a8e57610a8d6116e7565b5b600660019054906101000a900460ff166003811115610ab057610aaf6116e7565b5b145b5b80610b2f5750600380811115610acc57610acb6116e7565b5b600660009054906101000a900460ff166003811115610aee57610aed6116e7565b5b148015610b2e575060026003811115610b0a57610b096116e7565b5b600660019054906101000a900460ff166003811115610b2c57610b2b6116e7565b5b145b5b80610bad575060006003811115610b4957610b486116e7565b5b600660009054906101000a900460ff166003811115610b6b57610b6a6116e7565b5b14158015610bac575060006003811115610b8857610b876116e7565b5b600660019054906101000a900460ff166003811115610baa57610ba96116e7565b5b145b5b15610bbb5760019050610bc0565b600290505b5b6000600260009054906101000a900473ffffffffffffffffffffffffffffffffffffffff1690506000600360009054906101000a900473ffffffffffffffffffffffffffffffffffffffff169050600080549050610c1d610f9f565b610c298383838761109e565b8394505050505090565b60008060001b60045414158015610c4f57506000801b60055414155b905090565b6000600260009054906101000a900473ffffffffffffffffffffffffffffffffffffffff1673ffffffffffffffffffffffffffffffffffffffff163373ffffffffffffffffffffffffffffffffffffffff161480610cff5750600360009054906101000a900473ffffffffffffffffffffffffffffffffffffffff1673ffffffffffffffffffffffffffffffffffffffff163373ffffffffffffffffffffffffffffffffffffffff16145b610d0857600080fd5b600260009054906101000a900473ffffffffffffffffffffffffffffffffffffffff1673ffffffffffffffffffffffffffffffffffffffff163373ffffffffffffffffffffffffffffffffffffffff16148015610d6957506000801b600454145b15610d7a5781600481905550610df6565b600360009054906101000a900473ffffffffffffffffffffffffffffffffffffffff1673ffffffffffffffffffffffffffffffffffffffff163373ffffffffffffffffffffffffffffffffffffffff16148015610ddb57506000801b600554145b15610dec5781600581905550610df5565b60009050610dfb565b5b600190505b919050565b6000600260009054906101000a900473ffffffffffffffffffffffffffffffffffffffff1673ffffffffffffffffffffffffffffffffffffffff163373ffffffffffffffffffffffffffffffffffffffff161415610e615760019050610ec5565b600360009054906101000a900473ffffffffffffffffffffffffffffffffffffffff1673ffffffffffffffffffffffffffffffffffffffff163373ffffffffffffffffffffffffffffffffffffffff161415610ec05760029050610ec5565b600090505b90565b60008082600081518110610edf57610ede611716565b5b602001015160f81c60f81b9050603160f81b817effffffffffffffffffffffffffffffffffffffffffffffffffffffffffffff19161415610f24576001915050610f9a565b603260f81b817effffffffffffffffffffffffffffffffffffffffffffffffffffffffffffff19161415610f5c576002915050610f9a565b603360f81b817effffffffffffffffffffffffffffffffffffffffffffffffffffffffffffff19161415610f94576003915050610f9a565b60009150505b919050565b6000808190555060006001819055506000600260006101000a81548173ffffffffffffffffffffffffffffffffffffffff021916908373ffffffffffffffffffffffffffffffffffffffff1602179055506000600360006101000a81548173ffffffffffffffffffffffffffffffffffffffff021916908373ffffffffffffffffffffffffffffffffffffffff1602179055506000801b6004819055506000801b6005819055506000600660006101000a81548160ff0219169083600381111561106c5761106b6116e7565b5b02179055506000600660016101000a81548160ff02191690836003811115611097576110966116e7565b5b0217905550565b600160038111156110b2576110b16116e7565b5b8160038111156110c5576110c46116e7565b5b1415611117578373ffffffffffffffffffffffffffffffffffffffff166108fc479081150290604051600060405180830381858888f19350505050158015611111573d6000803e3d6000fd5b50611220565b6002600381111561112b5761112a6116e7565b5b81600381111561113e5761113d6116e7565b5b1415611190578273ffffffffffffffffffffffffffffffffffffffff166108fc479081150290604051600060405180830381858888f1935050505015801561118a573d6000803e3d6000fd5b5061121f565b8373ffffffffffffffffffffffffffffffffffffffff166108fc839081150290604051600060405180830381858888f193505050501580156111d6573d6000803e3d6000fd5b508273ffffffffffffffffffffffffffffffffffffffff166108fc479081150290604051600060405180830381858888f1935050505015801561121d573d6000803e3d6000fd5b505b5b50505050565b6000611239611234846114ea565b6114c5565b90508281526020810184848401111561125557611254611779565b5b611260848285611645565b509392505050565b600081359050611277816117c1565b92915050565b60008151905061128c816117c1565b92915050565b600082601f8301126112a7576112a6611774565b5b81356112b7848260208601611226565b91505092915050565b6000602082840312156112d6576112d5611783565b5b60006112e484828501611268565b91505092915050565b60006020828403121561130357611302611783565b5b60006113118482850161127d565b91505092915050565b6000602082840312156113305761132f611783565b5b600082013567ffffffffffffffff81111561134e5761134d61177e565b5b61135a84828501611292565b91505092915050565b61136c816115d1565b82525050565b600061137d8261151b565b6113878185611531565b9350611397818560208601611654565b80840191505092915050565b6113ac81611621565b82525050565b6113bb81611633565b82525050565b6113ca8161160d565b82525050565b60006113db82611526565b6113e5818561153c565b93506113f5818560208601611654565b80840191505092915050565b61140a81611617565b82525050565b600061141c8284611372565b915081905092915050565b600061143382846113d0565b915081905092915050565b60006020820190506114536000830184611363565b92915050565b600060208201905061146e60008301846113a3565b92915050565b600060208201905061148960008301846113b2565b92915050565b60006020820190506114a460008301846113c1565b92915050565b60006020820190506114bf6000830184611401565b92915050565b60006114cf6114e0565b90506114db8282611687565b919050565b6000604051905090565b600067ffffffffffffffff82111561150557611504611745565b5b61150e82611788565b9050602081019050919050565b600081519050919050565b600081519050919050565b600081905092915050565b600081905092915050565b600061155282611617565b915061155d83611617565b9250827fffffffffffffffffffffffffffffffffffffffffffffffffffffffffffffffff03821115611592576115916116b8565b5b828201905092915050565b60006115a882611617565b91506115b383611617565b9250828210156115c6576115c56116b8565b5b828203905092915050565b60008115159050919050565b6000819050919050565b60008190506115f582611799565b919050565b6000819050611608826117ad565b919050565b6000819050919050565b6000819050919050565b600061162c826115e7565b9050919050565b600061163e826115fa565b9050919050565b82818337600083830152505050565b60005b83811015611672578082015181840152602081019050611657565b83811115611681576000848401525b50505050565b61169082611788565b810181811067ffffffffffffffff821117156116af576116ae611745565b5b80604052505050565b7f4e487b7100000000000000000000000000000000000000000000000000000000600052601160045260246000fd5b7f4e487b7100000000000000000000000000000000000000000000000000000000600052602160045260246000fd5b7f4e487b7100000000000000000000000000000000000000000000000000000000600052603260045260246000fd5b7f4e487b7100000000000000000000000000000000000000000000000000000000600052604160045260246000fd5b600080fd5b600080fd5b600080fd5b600080fd5b6000601f19601f8301169050919050565b600481106117aa576117a96116e7565b5b50565b600481106117be576117bd6116e7565b5b50565b6117ca816115dd565b81146117d557600080fd5b5056fea26469706673582212201af76a1097899b6b4733d4cb302622bf44f9dda10ebf15d5e1d07e54c4467d9064736f6c63430008070033",
  "immutableReferences": {},
  "source": "//SPDX-License-Identifier: MIT\npragma solidity ^0.8.7;\n\ncontract RockPaperScissors {\n    uint256 public constant BET_MIN = 1 ether; // The minimum bet\n    uint256 public constant REVEAL_TIMEOUT = 10 minutes; // Max delay of revelation phase\n    uint256 public initialBet; // Bet of first player\n    uint256 private firstReveal; // Moment of first reveal\n\n    enum Moves {\n        None,\n        Rock,\n        Paper,\n        Scissors\n    }\n    enum Outcomes {\n        None,\n        PlayerA,\n        PlayerB,\n        Draw\n    } // Possible outcomes\n\n    // Players' addresses\n    address payable playerA;\n    address payable playerB;\n\n    // Encrypted moves\n    bytes32 private encrMovePlayerA;\n    bytes32 private encrMovePlayerB;\n\n    // Clear moves set only after both players have committed their encrypted moves\n    Moves private movePlayerA;\n    Moves private movePlayerB;\n\n    /**************************************************************************/\n    /*************************** REGISTRATION PHASE ***************************/\n    /**************************************************************************/\n\n    // Bet must be greater than a minimum amount and greater than bet of first player\n    modifier validBet() {\n        require(msg.value >= BET_MIN);\n        require(initialBet == 0 || msg.value >= initialBet);\n        _;\n    }\n\n    modifier notAlreadyRegistered() {\n        require(msg.sender != playerA && msg.sender != playerB);\n        _;\n    }\n\n    // Register a player.\n    // Return player's ID upon successful registration.\n    function register()\n        public\n        payable\n        validBet\n        notAlreadyRegistered\n        returns (uint256)\n    {\n        if (playerA == address(0x0)) {\n            playerA = payable(msg.sender);\n            initialBet = msg.value;\n            return 1;\n        } else if (playerB == address(0x0)) {\n            playerB = payable(msg.sender);\n            return 2;\n        }\n        return 0;\n    }\n\n    /**************************************************************************/\n    /****************************** COMMIT PHASE ******************************/\n    /**************************************************************************/\n\n    modifier isRegistered() {\n        require(msg.sender == playerA || msg.sender == playerB);\n        _;\n    }\n\n    // Save player's encrypted move.\n    // Return 'true' if move was valid, 'false' otherwise.\n    function play(bytes32 encrMove) public isRegistered returns (bool) {\n        if (msg.sender == playerA && encrMovePlayerA == 0x0) {\n            encrMovePlayerA = encrMove;\n        } else if (msg.sender == playerB && encrMovePlayerB == 0x0) {\n            encrMovePlayerB = encrMove;\n        } else {\n            return false;\n        }\n        return true;\n    }\n\n    /**************************************************************************/\n    /****************************** REVEAL PHASE ******************************/\n    /**************************************************************************/\n\n    modifier commitPhaseEnded() {\n        require(encrMovePlayerA != 0x0 && encrMovePlayerB != 0x0);\n        _;\n    }\n\n    // Compare clear move given by the player with saved encrypted move.\n    // Return clear move upon success, 'Moves.None' otherwise.\n    function reveal(string memory clearMove)\n        public\n        isRegistered\n        commitPhaseEnded\n        returns (Moves)\n    {\n        bytes32 encrMove = sha256(abi.encodePacked(clearMove)); // Hash of clear input (= \"move-password\")\n        Moves move = Moves(getFirstChar(clearMove)); // Actual move (Rock / Paper / Scissors)\n\n        // If move invalid, exit\n        if (move == Moves.None) {\n            return Moves.None;\n        }\n\n        // If hashes match, clear move is saved\n        if (msg.sender == playerA && encrMove == encrMovePlayerA) {\n            movePlayerA = move;\n        } else if (msg.sender == playerB && encrMove == encrMovePlayerB) {\n            movePlayerB = move;\n        } else {\n            return Moves.None;\n        }\n\n        // Timer starts after first revelation from one of the player\n        if (firstReveal == 0) {\n            firstReveal = block.timestamp;\n        }\n\n        return move;\n    }\n\n    // Return first character of a given string.\n    function getFirstChar(string memory str) private pure returns (uint256) {\n        bytes1 firstByte = bytes(str)[0];\n        if (firstByte == 0x31) {\n            return 1;\n        } else if (firstByte == 0x32) {\n            return 2;\n        } else if (firstByte == 0x33) {\n            return 3;\n        } else {\n            return 0;\n        }\n    }\n\n    /**************************************************************************/\n    /****************************** RESULT PHASE ******************************/\n    /**************************************************************************/\n\n    modifier revealPhaseEnded() {\n        require(\n            (movePlayerA != Moves.None && movePlayerB != Moves.None) ||\n                (firstReveal != 0 &&\n                    block.timestamp > firstReveal + REVEAL_TIMEOUT)\n        );\n        _;\n    }\n\n    // Compute the outcome and pay the winner(s).\n    // Return the outcome.\n    function getOutcome() public revealPhaseEnded returns (Outcomes) {\n        Outcomes outcome;\n\n        if (movePlayerA == movePlayerB) {\n            outcome = Outcomes.Draw;\n        } else if (\n            (movePlayerA == Moves.Rock && movePlayerB == Moves.Scissors) ||\n            (movePlayerA == Moves.Paper && movePlayerB == Moves.Rock) ||\n            (movePlayerA == Moves.Scissors && movePlayerB == Moves.Paper) ||\n            (movePlayerA != Moves.None && movePlayerB == Moves.None)\n        ) {\n            outcome = Outcomes.PlayerA;\n        } else {\n            outcome = Outcomes.PlayerB;\n        }\n\n        address payable addrA = playerA;\n        address payable addrB = playerB;\n        uint256 betPlayerA = initialBet;\n        reset(); // Reset game before paying to avoid reentrancy attacks\n        pay(addrA, addrB, betPlayerA, outcome);\n\n        return outcome;\n    }\n\n    // Pay the winner(s).\n    function pay(\n        address payable addrA,\n        address payable addrB,\n        uint256 betPlayerA,\n        Outcomes outcome\n    ) private {\n        // Uncomment lines below if you need to adjust the gas limit\n        if (outcome == Outcomes.PlayerA) {\n            addrA.transfer(address(this).balance);\n            // addrA.call.value(address(this).balance).gas(1000000)(\"\");\n        } else if (outcome == Outcomes.PlayerB) {\n            addrB.transfer(address(this).balance);\n            // addrB.call.value(address(this).balance).gas(1000000)(\"\");\n        } else {\n            addrA.transfer(betPlayerA);\n            addrB.transfer(address(this).balance);\n            // addrA.call.value(betPlayerA).gas(1000000)(\"\");\n            // addrB.call.value(address(this).balance).gas(1000000)(\"\");\n        }\n    }\n\n    // Reset the game.\n    function reset() private {\n        initialBet = 0;\n        firstReveal = 0;\n        playerA = payable(address(0x0));\n        playerB = payable(address(0x0));\n        encrMovePlayerA = 0x0;\n        encrMovePlayerB = 0x0;\n        movePlayerA = Moves.None;\n        movePlayerB = Moves.None;\n    }\n\n    /**************************************************************************/\n    /**************************** HELPER FUNCTIONS ****************************/\n    /**************************************************************************/\n\n    // Return contract balance\n    function getContractBalance() public view returns (uint256) {\n        return address(this).balance;\n    }\n\n    // Return player's ID\n    function whoAmI() public view returns (uint256) {\n        if (msg.sender == playerA) {\n            return 1;\n        } else if (msg.sender == playerB) {\n            return 2;\n        } else {\n            return 0;\n        }\n    }\n\n    // Return 'true' if both players have commited a move, 'false' otherwise.\n    function bothPlayed() public view returns (bool) {\n        return (encrMovePlayerA != 0x0 && encrMovePlayerB != 0x0);\n    }\n\n    // Return 'true' if both players have revealed their move, 'false' otherwise.\n    function bothRevealed() public view returns (bool) {\n        return (movePlayerA != Moves.None && movePlayerB != Moves.None);\n    }\n\n    // Return time left before the end of the revelation phase.\n    function revealTimeLeft() public view returns (int256) {\n        if (firstReveal != 0) {\n            return int256((firstReveal + REVEAL_TIMEOUT) - block.timestamp);\n        }\n        return int256(REVEAL_TIMEOUT);\n    }\n}\n",
  "sourcePath": "/mnt/e/dev/RPS/contracts/rockpaperscissors.sol",
  "compiler": {
    "name": "solc",
    "version": "0.8.7+commit.e28d00a7.Emscripten.clang"
  },
  "schemaVersion": "3.1.0",
  "updatedAt": "2021-12-13T10:17:00.813Z",
  "networkType": "ethereum",
  "devdoc": {
    "kind": "dev",
    "methods": {},
    "version": 1
  },
  "userdoc": {
    "kind": "user",
    "methods": {},
    "version": 1
  }
}