{
  "contractName": "RPS",
  "abi": [
    {
      "inputs": [],
      "stateMutability": "payable",
      "type": "constructor",
      "payable": true
    },
    {
      "anonymous": false,
      "inputs": [
        {
          "indexed": false,
          "internalType": "uint256",
          "name": "roomNum",
          "type": "uint256"
        },
        {
          "indexed": false,
          "internalType": "uint8",
          "name": "originatorHand",
          "type": "uint8"
        },
        {
          "indexed": false,
          "internalType": "uint8",
          "name": "takerHand",
          "type": "uint8"
        },
        {
          "indexed": false,
          "internalType": "uint8",
          "name": "roomStatus",
          "type": "uint8"
        }
      ],
      "name": "CompareHandsLog",
      "type": "event"
    },
    {
      "anonymous": false,
      "inputs": [
        {
          "indexed": false,
          "internalType": "address",
          "name": "addr",
          "type": "address"
        },
        {
          "indexed": false,
          "internalType": "uint256",
          "name": "betAmount",
          "type": "uint256"
        },
        {
          "indexed": false,
          "internalType": "uint8",
          "name": "hand",
          "type": "uint8"
        },
        {
          "indexed": false,
          "internalType": "uint8",
          "name": "status",
          "type": "uint8"
        },
        {
          "indexed": false,
          "internalType": "uint256",
          "name": "roomNum",
          "type": "uint256"
        }
      ],
      "name": "CreateRoomLog",
      "type": "event"
    },
    {
      "anonymous": false,
      "inputs": [
        {
          "indexed": false,
          "internalType": "uint256",
          "name": "roomNum",
          "type": "uint256"
        },
        {
          "indexed": false,
          "internalType": "uint8",
          "name": "hand",
          "type": "uint8"
        },
        {
          "indexed": false,
          "internalType": "uint8",
          "name": "status",
          "type": "uint8"
        },
        {
          "indexed": false,
          "internalType": "uint256",
          "name": "betAmount",
          "type": "uint256"
        }
      ],
      "name": "JoinRoomLog",
      "type": "event"
    },
    {
      "anonymous": false,
      "inputs": [
        {
          "indexed": false,
          "internalType": "string",
          "name": "log",
          "type": "string"
        }
      ],
      "name": "PayOutLog",
      "type": "event"
    },
    {
      "inputs": [
        {
          "internalType": "enum RPS.Hand",
          "name": "_hand",
          "type": "uint8"
        },
        {
          "internalType": "string",
          "name": "password",
          "type": "string"
        }
      ],
      "name": "createRoom",
      "outputs": [
        {
          "internalType": "uint256",
          "name": "roomNum",
          "type": "uint256"
        }
      ],
      "stateMutability": "payable",
      "type": "function",
      "payable": true
    },
    {
      "inputs": [
        {
          "internalType": "uint256",
          "name": "roomNum",
          "type": "uint256"
        },
        {
          "internalType": "enum RPS.Hand",
          "name": "_hand",
          "type": "uint8"
        },
        {
          "internalType": "string",
          "name": "password",
          "type": "string"
        }
      ],
      "name": "joinRoom",
      "outputs": [],
      "stateMutability": "payable",
      "type": "function",
      "payable": true
    },
    {
      "inputs": [
        {
          "internalType": "uint256",
          "name": "roomNum",
          "type": "uint256"
        },
        {
          "internalType": "enum RPS.Hand",
          "name": "_hand",
          "type": "uint8"
        },
        {
          "internalType": "string",
          "name": "password",
          "type": "string"
        }
      ],
      "name": "revealOriginator",
      "outputs": [],
      "stateMutability": "nonpayable",
      "type": "function"
    },
    {
      "inputs": [
        {
          "internalType": "uint256",
          "name": "roomNum",
          "type": "uint256"
        },
        {
          "internalType": "enum RPS.Hand",
          "name": "_hand",
          "type": "uint8"
        },
        {
          "internalType": "string",
          "name": "password",
          "type": "string"
        }
      ],
      "name": "revealTaker",
      "outputs": [],
      "stateMutability": "nonpayable",
      "type": "function"
    },
    {
      "inputs": [
        {
          "internalType": "uint256",
          "name": "roomNum",
          "type": "uint256"
        }
      ],
      "name": "payout",
      "outputs": [],
      "stateMutability": "payable",
      "type": "function",
      "payable": true
    }
  ],
  "bytecode": "0x60806040526000600155611cb1806100186000396000f3fe60806040526004361061004a5760003560e01c80630e46dcbd1461004f578063311b6900146100785780636b5ce8cd146100945780639f2cbf4f146100bd578063e1152343146100ed575b600080fd5b34801561005b57600080fd5b5061007660048036038101906100719190611611565b610109565b005b610092600480360381019061008d9190611611565b610290565b005b3480156100a057600080fd5b506100bb60048036038101906100b69190611611565b6105a2565b005b6100d760048036038101906100d29190611588565b610729565b6040516100e491906117fb565b60405180910390f35b610107600480360381019061010291906115e4565b610bf0565b005b6000808481526020019081526020016000206000016003015460028383604051602001610137929190611760565b6040516020818303038152906040526040516101539190611749565b602060405180830381855afa158015610170573d6000803e3d6000fd5b5050506040513d601f19601f82011682018060405250810190610193919061155b565b14156101da578160008085815260200190815260200160002060000160020160006101000a81548160ff021916908360038111156101d4576101d3611b70565b5b02179055505b6003808111156101ed576101ec611b70565b5b60008085815260200190815260200160002060000160020160009054906101000a900460ff16600381111561022557610224611b70565b5b1415801561027c575060038081111561024157610240611b70565b5b60008085815260200190815260200160002060050160020160009054906101000a900460ff16600381111561027957610278611b70565b5b14155b1561028b5761028a83611147565b5b505050565b81600060038111156102a5576102a4611b70565b5b8160038111156102b8576102b7611b70565b5b14806102e85750600160038111156102d3576102d2611b70565b5b8160038111156102e6576102e5611b70565b5b145b8061031757506002600381111561030257610301611b70565b5b81600381111561031557610314611b70565b5b145b61032057600080fd5b6040518060a001604052803373ffffffffffffffffffffffffffffffffffffffff1681526020013481526020016003808111156103605761035f611b70565b5b81526020016002858560405160200161037a929190611760565b6040516020818303038152906040526040516103969190611749565b602060405180830381855afa1580156103b3573d6000803e3d6000fd5b5050506040513d601f19601f820116820180604052508101906103d6919061155b565b81526020016003808111156103ee576103ed611b70565b5b81525060008086815260200190815260200160002060050160008201518160000160006101000a81548173ffffffffffffffffffffffffffffffffffffffff021916908373ffffffffffffffffffffffffffffffffffffffff1602179055506020820151816001015560408201518160020160006101000a81548160ff0219169083600381111561048257610481611b70565b5b02179055506060820151816003015560808201518160040160006101000a81548160ff021916908360038111156104bc576104bb611b70565b5b021790555090505034600080868152602001908152602001600020600001600101546104e89190611933565b600080868152602001908152602001600020600a01819055507f35eb1d9062c71d7efb189193488b93c577178b8f5789964a75e8a967541f0bbb8484600381111561053657610535611b70565b5b60008088815260200190815260200160002060050160040160009054906101000a900460ff16600381111561056e5761056d611b70565b5b600080898152602001908152602001600020600a01546040516105949493929190611816565b60405180910390a150505050565b60008084815260200190815260200160002060050160030154600283836040516020016105d0929190611760565b6040516020818303038152906040526040516105ec9190611749565b602060405180830381855afa158015610609573d6000803e3d6000fd5b5050506040513d601f19601f8201168201806040525081019061062c919061155b565b1415610673578160008085815260200190815260200160002060050160020160006101000a81548160ff0219169083600381111561066d5761066c611b70565b5b02179055505b60038081111561068657610685611b70565b5b60008085815260200190815260200160002060000160020160009054906101000a900460ff1660038111156106be576106bd611b70565b5b1415801561071557506003808111156106da576106d9611b70565b5b60008085815260200190815260200160002060050160020160009054906101000a900460ff16600381111561071257610711611b70565b5b14155b156107245761072383611147565b5b505050565b600082600060038111156107405761073f611b70565b5b81600381111561075357610752611b70565b5b148061078357506001600381111561076e5761076d611b70565b5b81600381111561078157610780611b70565b5b145b806107b257506002600381111561079d5761079c611b70565b5b8160038111156107b0576107af611b70565b5b145b6107bb57600080fd5b60405180608001604052806040518060a001604052803373ffffffffffffffffffffffffffffffffffffffff16815260200134815260200160038081111561080657610805611b70565b5b815260200160028888604051602001610820929190611760565b60405160208183030381529060405260405161083c9190611749565b602060405180830381855afa158015610859573d6000803e3d6000fd5b5050506040513d601f19601f8201168201806040525081019061087c919061155b565b815260200160038081111561089457610893611b70565b5b81525081526020016040518060a001604052803373ffffffffffffffffffffffffffffffffffffffff168152602001600081526020016003808111156108dd576108dc611b70565b5b8152602001600288886040516020016108f7929190611760565b6040516020818303038152906040526040516109139190611749565b602060405180830381855afa158015610930573d6000803e3d6000fd5b5050506040513d601f19601f82011682018060405250810190610953919061155b565b815260200160038081111561096b5761096a611b70565b5b81525081526020013481526020016000600381111561098d5761098c611b70565b5b815250600080600154815260200190815260200160002060008201518160000160008201518160000160006101000a81548173ffffffffffffffffffffffffffffffffffffffff021916908373ffffffffffffffffffffffffffffffffffffffff1602179055506020820151816001015560408201518160020160006101000a81548160ff02191690836003811115610a2957610a28611b70565b5b02179055506060820151816003015560808201518160040160006101000a81548160ff02191690836003811115610a6357610a62611b70565b5b0217905550505060208201518160050160008201518160000160006101000a81548173ffffffffffffffffffffffffffffffffffffffff021916908373ffffffffffffffffffffffffffffffffffffffff1602179055506020820151816001015560408201518160020160006101000a81548160ff02191690836003811115610aef57610aee611b70565b5b02179055506060820151816003015560808201518160040160006101000a81548160ff02191690836003811115610b2957610b28611b70565b5b02179055505050604082015181600a0155606082015181600b0160006101000a81548160ff02191690836003811115610b6557610b64611b70565b5b0217905550905050600154915060018054610b809190611933565b6001819055507f502049b5fe6103141e69eae3e2a7c14dbbe0320ef8d37850659e40e828cec4983334866003811115610bbc57610bbb611b70565b5b600380811115610bcf57610bce611b70565b5b86604051610be1959493929190611788565b60405180910390a15092915050565b60026003811115610c0457610c03611b70565b5b60008083815260200190815260200160002060000160040160009054906101000a900460ff166003811115610c3c57610c3b611b70565b5b148015610c92575060026003811115610c5857610c57611b70565b5b60008083815260200190815260200160002060050160040160009054906101000a900460ff166003811115610c9057610c8f611b70565b5b145b15610dca5760008082815260200190815260200160002060000160000160009054906101000a900473ffffffffffffffffffffffffffffffffffffffff1673ffffffffffffffffffffffffffffffffffffffff166108fc600080848152602001908152602001600020600001600101549081150290604051600060405180830381858888f19350505050158015610d2d573d6000803e3d6000fd5b5060008082815260200190815260200160002060050160000160009054906101000a900473ffffffffffffffffffffffffffffffffffffffff1673ffffffffffffffffffffffffffffffffffffffff166108fc600080848152602001908152602001600020600501600101549081150290604051600060405180830381858888f19350505050158015610dc4573d6000803e3d6000fd5b506110d1565b60006003811115610dde57610ddd611b70565b5b60008083815260200190815260200160002060000160040160009054906101000a900460ff166003811115610e1657610e15611b70565b5b1415610eb55760008082815260200190815260200160002060000160000160009054906101000a900473ffffffffffffffffffffffffffffffffffffffff1673ffffffffffffffffffffffffffffffffffffffff166108fc600080848152602001908152602001600020600a01549081150290604051600060405180830381858888f19350505050158015610eaf573d6000803e3d6000fd5b506110d0565b60006003811115610ec957610ec8611b70565b5b60008083815260200190815260200160002060050160040160009054906101000a900460ff166003811115610f0157610f00611b70565b5b1415610fa05760008082815260200190815260200160002060050160000160009054906101000a900473ffffffffffffffffffffffffffffffffffffffff1673ffffffffffffffffffffffffffffffffffffffff166108fc600080848152602001908152602001600020600a01549081150290604051600060405180830381858888f19350505050158015610f9a573d6000803e3d6000fd5b506110cf565b60008082815260200190815260200160002060000160000160009054906101000a900473ffffffffffffffffffffffffffffffffffffffff1673ffffffffffffffffffffffffffffffffffffffff166108fc600080848152602001908152602001600020600001600101549081150290604051600060405180830381858888f19350505050158015611036573d6000803e3d6000fd5b5060008082815260200190815260200160002060050160000160009054906101000a900473ffffffffffffffffffffffffffffffffffffffff1673ffffffffffffffffffffffffffffffffffffffff166108fc600080848152602001908152602001600020600501600101549081150290604051600060405180830381858888f193505050501580156110cd573d6000803e3d6000fd5b505b5b5b7f15437861cedd21e9dc2304907ee21eaf102eeda9eae0db183b3e0270f4f53a746040516110fe906117db565b60405180910390a16002600080838152602001908152602001600020600b0160006101000a81548160ff0219169083600381111561113f5761113e611b70565b5b021790555050565b600080600083815260200190815260200160002060000160020160009054906101000a900460ff16600381111561118157611180611b70565b5b9050600080600084815260200190815260200160002060050160020160009054906101000a900460ff1660038111156111bd576111bc611b70565b5b90506001600080858152602001908152602001600020600b0160006101000a81548160ff021916908360038111156111f8576111f7611b70565b5b02179055508060ff168260ff16141561129257600260008085815260200190815260200160002060000160040160006101000a81548160ff0219169083600381111561124757611246611b70565b5b0217905550600260008085815260200190815260200160002060050160040160006101000a81548160ff0219169083600381111561128857611287611b70565b5b021790555061142d565b8160ff1660036001836112a59190611989565b6112af9190611ae1565b60ff16141561133f57600080600085815260200190815260200160002060000160040160006101000a81548160ff021916908360038111156112f4576112f3611b70565b5b0217905550600160008085815260200190815260200160002060050160040160006101000a81548160ff0219169083600381111561133557611334611b70565b5b021790555061142c565b8060ff1660036001846113529190611989565b61135c9190611ae1565b60ff1614156113ec57600160008085815260200190815260200160002060000160040160006101000a81548160ff021916908360038111156113a1576113a0611b70565b5b0217905550600080600085815260200190815260200160002060050160040160006101000a81548160ff021916908360038111156113e2576113e1611b70565b5b021790555061142b565b6003600080858152602001908152602001600020600b0160006101000a81548160ff0219169083600381111561142557611424611b70565b5b02179055505b5b5b7f32581b4a657d973aecfbcd8214a11003d3f37ccfd596cece91d02ea919dd38f5838383600080888152602001908152602001600020600b0160009054906101000a900460ff16600381111561148657611485611b70565b5b604051611496949392919061185b565b60405180910390a16114a783610bf0565b505050565b60006114bf6114ba846118c5565b6118a0565b9050828152602081018484840111156114db576114da611bd3565b5b6114e6848285611a5c565b509392505050565b6000815190506114fd81611c3d565b92915050565b60008135905061151281611c54565b92915050565b600082601f83011261152d5761152c611bce565b5b813561153d8482602086016114ac565b91505092915050565b60008135905061155581611c64565b92915050565b60006020828403121561157157611570611bdd565b5b600061157f848285016114ee565b91505092915050565b6000806040838503121561159f5761159e611bdd565b5b60006115ad85828601611503565b925050602083013567ffffffffffffffff8111156115ce576115cd611bd8565b5b6115da85828601611518565b9150509250929050565b6000602082840312156115fa576115f9611bdd565b5b600061160884828501611546565b91505092915050565b60008060006060848603121561162a57611629611bdd565b5b600061163886828701611546565b935050602061164986828701611503565b925050604084013567ffffffffffffffff81111561166a57611669611bd8565b5b61167686828701611518565b9150509250925092565b61168981611a14565b82525050565b600061169a826118f6565b6116a4818561190c565b93506116b4818560208601611a6b565b80840191505092915050565b6116d16116cc82611a26565b611acf565b82525050565b60006116e282611901565b6116ec8185611928565b93506116fc818560208601611a6b565b80840191505092915050565b6000611715600483611917565b915061172082611c00565b602082019050919050565b611734816119fd565b82525050565b61174381611a07565b82525050565b6000611755828461168f565b915081905092915050565b600061176c82856116c0565b60018201915061177c82846116d7565b91508190509392505050565b600060a08201905061179d6000830188611680565b6117aa602083018761172b565b6117b7604083018661173a565b6117c4606083018561173a565b6117d1608083018461172b565b9695505050505050565b600060208201905081810360008301526117f481611708565b9050919050565b6000602082019050611810600083018461172b565b92915050565b600060808201905061182b600083018761172b565b611838602083018661173a565b611845604083018561173a565b611852606083018461172b565b95945050505050565b6000608082019050611870600083018761172b565b61187d602083018661173a565b61188a604083018561173a565b611897606083018461173a565b95945050505050565b60006118aa6118bb565b90506118b68282611a9e565b919050565b6000604051905090565b600067ffffffffffffffff8211156118e0576118df611b9f565b5b6118e982611be2565b9050602081019050919050565b600081519050919050565b600081519050919050565b600081905092915050565b600082825260208201905092915050565b600081905092915050565b600061193e826119fd565b9150611949836119fd565b9250827fffffffffffffffffffffffffffffffffffffffffffffffffffffffffffffffff0382111561197e5761197d611b12565b5b828201905092915050565b600061199482611a07565b915061199f83611a07565b92508260ff038211156119b5576119b4611b12565b5b828201905092915050565b6000819050919050565b60008190506119d882611c29565b919050565b600073ffffffffffffffffffffffffffffffffffffffff82169050919050565b6000819050919050565b600060ff82169050919050565b6000611a1f82611a38565b9050919050565b6000611a31826119ca565b9050919050565b6000611a4382611a4a565b9050919050565b6000611a55826119dd565b9050919050565b82818337600083830152505050565b60005b83811015611a89578082015181840152602081019050611a6e565b83811115611a98576000848401525b50505050565b611aa782611be2565b810181811067ffffffffffffffff82111715611ac657611ac5611b9f565b5b80604052505050565b6000611ada82611bf3565b9050919050565b6000611aec82611a07565b9150611af783611a07565b925082611b0757611b06611b41565b5b828206905092915050565b7f4e487b7100000000000000000000000000000000000000000000000000000000600052601160045260246000fd5b7f4e487b7100000000000000000000000000000000000000000000000000000000600052601260045260246000fd5b7f4e487b7100000000000000000000000000000000000000000000000000000000600052602160045260246000fd5b7f4e487b7100000000000000000000000000000000000000000000000000000000600052604160045260246000fd5b600080fd5b600080fd5b600080fd5b600080fd5b6000601f19601f8301169050919050565b60008160f81b9050919050565b7f5061696400000000000000000000000000000000000000000000000000000000600082015250565b60048110611c3a57611c39611b70565b5b50565b611c46816119c0565b8114611c5157600080fd5b50565b60048110611c6157600080fd5b50565b611c6d816119fd565b8114611c7857600080fd5b5056fea26469706673582212209e21f42d6383717f3d8f06c1a819a668ba0ac9cc008d0cf08c54f2eddd91d0f064736f6c63430008070033",
  "immutableReferences": {},
  "source": "//SPDX-License-Identifier: MIT\npragma solidity ^0.8.7;\n\ncontract RPS {\n    constructor() payable {}\n\n    enum Hand {\n        rock,\n        paper,\n        scissors,\n        none\n    }\n\n    enum PlayerStatus {\n        WIN,\n        LOSE,\n        TIE,\n        PENDING\n    }\n\n    enum GameStatus {\n        NOT_STARTED,\n        STARTED,\n        COMPLETE,\n        ERROR\n    }\n\n    struct Player {\n        address payable addr;\n        uint256 betAmount;\n        Hand hand;\n        bytes32 encHand;\n        PlayerStatus status;\n    }\n\n    struct Game {\n        Player originator;\n        Player taker;\n        uint256 betAmount;\n        GameStatus status;\n    }\n\n    mapping(uint256 => Game) rooms;\n    uint256 roomLen = 0;\n\n    modifier isValidHand(Hand _hand) {\n        require(\n            (_hand == Hand.rock) ||\n                (_hand == Hand.paper) ||\n                (_hand == Hand.scissors)\n        );\n        _;\n    }\n\n    event CreateRoomLog(\n        address addr,\n        uint256 betAmount,\n        uint8 hand,\n        uint8 status,\n        uint256 roomNum\n    );\n\n    function createRoom(Hand _hand, string memory password)\n        public\n        payable\n        isValidHand(_hand)\n        returns (uint256 roomNum)\n    {\n        rooms[roomLen] = Game({\n            originator: Player({\n                addr: payable(msg.sender),\n                betAmount: msg.value,\n                hand: Hand.none,\n                encHand: sha256(abi.encodePacked(_hand, password)),\n                status: PlayerStatus.PENDING\n            }),\n            taker: Player({\n                addr: payable(msg.sender),\n                betAmount: 0,\n                hand: Hand.none,\n                encHand: sha256(abi.encodePacked(_hand, password)),\n                status: PlayerStatus.PENDING\n            }),\n            betAmount: msg.value,\n            status: GameStatus.NOT_STARTED\n        });\n        roomNum = roomLen;\n        roomLen = roomLen + 1;\n        emit CreateRoomLog(\n            payable(msg.sender),\n            msg.value,\n            uint8(_hand),\n            uint8(PlayerStatus.PENDING),\n            roomNum\n        );\n\n        return roomNum;\n    }\n\n    event JoinRoomLog(\n        uint256 roomNum,\n        uint8 hand,\n        uint8 status,\n        uint256 betAmount\n    );\n\n    function joinRoom(\n        uint256 roomNum,\n        Hand _hand,\n        string memory password\n    ) public payable isValidHand(_hand) {\n        rooms[roomNum].taker = Player({\n            addr: payable(msg.sender),\n            betAmount: msg.value,\n            hand: Hand.none,\n            encHand: sha256(abi.encodePacked(_hand, password)),\n            status: PlayerStatus.PENDING\n        });\n\n        rooms[roomNum].betAmount =\n            rooms[roomNum].originator.betAmount +\n            msg.value;\n\n        emit JoinRoomLog(\n            roomNum,\n            uint8(_hand),\n            uint8(rooms[roomNum].taker.status),\n            uint256(rooms[roomNum].betAmount)\n        );\n    }\n\n    function revealOriginator(\n        uint256 roomNum,\n        Hand _hand,\n        string memory password\n    ) public {\n        if (\n            sha256(abi.encodePacked(_hand, password)) ==\n            rooms[roomNum].originator.encHand\n        ) {\n            rooms[roomNum].originator.hand = _hand;\n        }\n\n        if (\n            rooms[roomNum].originator.hand != Hand.none &&\n            rooms[roomNum].taker.hand != Hand.none\n        ) {\n            compareHands(roomNum);\n        }\n    }\n\n    function revealTaker(\n        uint256 roomNum,\n        Hand _hand,\n        string memory password\n    ) public {\n        if (\n            sha256(abi.encodePacked(_hand, password)) ==\n            rooms[roomNum].taker.encHand\n        ) {\n            rooms[roomNum].taker.hand = _hand;\n        }\n        if (\n            rooms[roomNum].originator.hand != Hand.none &&\n            rooms[roomNum].taker.hand != Hand.none\n        ) {\n            compareHands(roomNum);\n        }\n    }\n\n    event CompareHandsLog(\n        uint256 roomNum,\n        uint8 originatorHand,\n        uint8 takerHand,\n        uint8 roomStatus\n    );\n\n    function compareHands(uint256 roomNum) private {\n        uint8 originatorHand = uint8(rooms[roomNum].originator.hand);\n        uint8 takerHand = uint8(rooms[roomNum].taker.hand);\n\n        rooms[roomNum].status = GameStatus.STARTED;\n\n        if (originatorHand == takerHand) {\n            rooms[roomNum].originator.status = PlayerStatus.TIE;\n            rooms[roomNum].taker.status = PlayerStatus.TIE;\n        } else if ((takerHand + 1) % 3 == originatorHand) {\n            //  \n            rooms[roomNum].originator.status = PlayerStatus.WIN;\n            rooms[roomNum].taker.status = PlayerStatus.LOSE;\n        } else if ((originatorHand + 1) % 3 == takerHand) {\n            //  \n            rooms[roomNum].originator.status = PlayerStatus.LOSE;\n            rooms[roomNum].taker.status = PlayerStatus.WIN;\n        } else {\n            rooms[roomNum].status = GameStatus.ERROR;\n        }\n\n        emit CompareHandsLog(\n            roomNum,\n            originatorHand,\n            takerHand,\n            uint8(rooms[roomNum].status)\n        );\n\n        payout(roomNum);\n    }\n\n    modifier isPlayer(uint256 roomNum, address sender) {\n        require(\n            sender == rooms[roomNum].originator.addr ||\n                sender == rooms[roomNum].taker.addr\n        );\n        _;\n    }\n\n    event PayOutLog(string log);\n\n    function payout(uint256 roomNum) public payable {\n        if (\n            rooms[roomNum].originator.status == PlayerStatus.TIE &&\n            rooms[roomNum].taker.status == PlayerStatus.TIE\n        ) {\n            rooms[roomNum].originator.addr.transfer(\n                rooms[roomNum].originator.betAmount\n            );\n            rooms[roomNum].taker.addr.transfer(rooms[roomNum].taker.betAmount);\n        } else {\n            if (rooms[roomNum].originator.status == PlayerStatus.WIN) {\n                rooms[roomNum].originator.addr.transfer(\n                    rooms[roomNum].betAmount\n                );\n            } else if (rooms[roomNum].taker.status == PlayerStatus.WIN) {\n                rooms[roomNum].taker.addr.transfer(rooms[roomNum].betAmount);\n            } else {\n                rooms[roomNum].originator.addr.transfer(\n                    rooms[roomNum].originator.betAmount\n                );\n                rooms[roomNum].taker.addr.transfer(\n                    rooms[roomNum].taker.betAmount\n                );\n            }\n        }\n        emit PayOutLog(\"Paid\");\n        rooms[roomNum].status = GameStatus.COMPLETE; //     \n    }\n}\n",
  "sourcePath": "/mnt/e/dev/RPS/contracts/RPS.sol",
  "compiler": {
    "name": "solc",
    "version": "0.8.7+commit.e28d00a7.Emscripten.clang"
  },
  "schemaVersion": "3.1.0",
  "updatedAt": "2021-12-13T10:36:46.435Z",
  "networkType": "ethereum",
  "devdoc": {
    "kind": "dev",
    "methods": {},
    "version": 1
  },
  "userdoc": {
    "kind": "user",
    "methods": {},
    "version": 1
  }
}