{
  "contractName": "RPSBACKUP",
  "abi": [
    {
      "inputs": [],
      "stateMutability": "payable",
      "type": "constructor"
    },
    {
      "anonymous": false,
      "inputs": [
        {
          "indexed": false,
          "internalType": "uint256",
          "name": "roomNum",
          "type": "uint256"
        },
        {
          "indexed": false,
          "internalType": "uint8",
          "name": "originatorHand",
          "type": "uint8"
        },
        {
          "indexed": false,
          "internalType": "uint8",
          "name": "takerHand",
          "type": "uint8"
        },
        {
          "indexed": false,
          "internalType": "uint8",
          "name": "roomStatus",
          "type": "uint8"
        }
      ],
      "name": "CompareHandsLog",
      "type": "event"
    },
    {
      "anonymous": false,
      "inputs": [
        {
          "indexed": false,
          "internalType": "address",
          "name": "addr",
          "type": "address"
        },
        {
          "indexed": false,
          "internalType": "uint256",
          "name": "betAmount",
          "type": "uint256"
        },
        {
          "indexed": false,
          "internalType": "uint8",
          "name": "hand",
          "type": "uint8"
        },
        {
          "indexed": false,
          "internalType": "uint8",
          "name": "status",
          "type": "uint8"
        },
        {
          "indexed": false,
          "internalType": "uint256",
          "name": "roomNum",
          "type": "uint256"
        }
      ],
      "name": "CreateRoomLog",
      "type": "event"
    },
    {
      "anonymous": false,
      "inputs": [
        {
          "indexed": false,
          "internalType": "uint256",
          "name": "roomNum",
          "type": "uint256"
        },
        {
          "indexed": false,
          "internalType": "uint8",
          "name": "hand",
          "type": "uint8"
        },
        {
          "indexed": false,
          "internalType": "uint8",
          "name": "status",
          "type": "uint8"
        },
        {
          "indexed": false,
          "internalType": "uint256",
          "name": "betAmount",
          "type": "uint256"
        }
      ],
      "name": "JoinRoomLog",
      "type": "event"
    },
    {
      "inputs": [
        {
          "internalType": "enum RPSBACKUP.Hand",
          "name": "_hand",
          "type": "uint8"
        },
        {
          "internalType": "string",
          "name": "password",
          "type": "string"
        }
      ],
      "name": "createRoom",
      "outputs": [
        {
          "internalType": "uint256",
          "name": "roomNum",
          "type": "uint256"
        }
      ],
      "stateMutability": "payable",
      "type": "function"
    },
    {
      "inputs": [
        {
          "internalType": "uint256",
          "name": "roomNum",
          "type": "uint256"
        },
        {
          "internalType": "enum RPSBACKUP.Hand",
          "name": "_hand",
          "type": "uint8"
        }
      ],
      "name": "joinRoom",
      "outputs": [],
      "stateMutability": "payable",
      "type": "function"
    },
    {
      "inputs": [
        {
          "internalType": "uint256",
          "name": "roomNum",
          "type": "uint256"
        }
      ],
      "name": "payout",
      "outputs": [],
      "stateMutability": "payable",
      "type": "function"
    }
  ],
  "bytecode": "0x60806040526000600155611506806100186000396000f3fe6080604052600436106100345760003560e01c806379b15776146100395780639f2cbf4f14610055578063e115234314610085575b600080fd5b610053600480360381019061004e91906110a2565b6100a1565b005b61006f600480360381019061006a9190611019565b61033a565b60405161007c9190611162565b60405180910390f35b61009f600480360381019061009a9190611075565b610701565b005b80600060028111156100b6576100b5611426565b5b8160028111156100c9576100c8611426565b5b14806100f95750600160028111156100e4576100e3611426565b5b8160028111156100f7576100f6611426565b5b145b80610127575060028081111561011257610111611426565b5b81600281111561012557610124611426565b5b145b61013057600080fd5b60405180608001604052803373ffffffffffffffffffffffffffffffffffffffff1681526020013481526020018360028111156101705761016f611426565b5b815260200160038081111561018857610187611426565b5b81525060008085815260200190815260200160002060030160008201518160000160006101000a81548173ffffffffffffffffffffffffffffffffffffffff021916908373ffffffffffffffffffffffffffffffffffffffff1602179055506020820151816001015560408201518160020160006101000a81548160ff0219169083600281111561021c5761021b611426565b5b021790555060608201518160020160016101000a81548160ff0219169083600381111561024c5761024b611426565b5b02179055509050503460008085815260200190815260200160002060000160010154610278919061125d565b600080858152602001908152602001600020600601819055507f35eb1d9062c71d7efb189193488b93c577178b8f5789964a75e8a967541f0bbb838360028111156102c6576102c5611426565b5b60008087815260200190815260200160002060030160020160019054906101000a900460ff1660038111156102fe576102fd611426565b5b60008088815260200190815260200160002060060154604051610324949392919061117d565b60405180910390a161033583610c23565b505050565b6000826000600281111561035157610350611426565b5b81600281111561036457610363611426565b5b148061039457506001600281111561037f5761037e611426565b5b81600281111561039257610391611426565b5b145b806103c257506002808111156103ad576103ac611426565b5b8160028111156103c0576103bf611426565b5b145b6103cb57600080fd5b604051806080016040528060405180608001604052803373ffffffffffffffffffffffffffffffffffffffff16815260200134815260200187600281111561041657610415611426565b5b815260200160038081111561042e5761042d611426565b5b815250815260200160405180608001604052803373ffffffffffffffffffffffffffffffffffffffff168152602001600081526020016000600281111561047857610477611426565b5b81526020016003808111156104905761048f611426565b5b8152508152602001348152602001600060038111156104b2576104b1611426565b5b815250600080600154815260200190815260200160002060008201518160000160008201518160000160006101000a81548173ffffffffffffffffffffffffffffffffffffffff021916908373ffffffffffffffffffffffffffffffffffffffff1602179055506020820151816001015560408201518160020160006101000a81548160ff0219169083600281111561054e5761054d611426565b5b021790555060608201518160020160016101000a81548160ff0219169083600381111561057e5761057d611426565b5b0217905550505060208201518160030160008201518160000160006101000a81548173ffffffffffffffffffffffffffffffffffffffff021916908373ffffffffffffffffffffffffffffffffffffffff1602179055506020820151816001015560408201518160020160006101000a81548160ff0219169083600281111561060a57610609611426565b5b021790555060608201518160020160016101000a81548160ff0219169083600381111561063a57610639611426565b5b021790555050506040820151816006015560608201518160070160006101000a81548160ff0219169083600381111561067657610675611426565b5b0217905550905050600154915060018054610691919061125d565b6001819055507f502049b5fe6103141e69eae3e2a7c14dbbe0320ef8d37850659e40e828cec49833348660028111156106cd576106cc611426565b5b6003808111156106e0576106df611426565b5b866040516106f295949392919061110f565b60405180910390a15092915050565b6002600381111561071557610714611426565b5b60008083815260200190815260200160002060000160020160019054906101000a900460ff16600381111561074d5761074c611426565b5b1480156107a357506002600381111561076957610768611426565b5b60008083815260200190815260200160002060030160020160019054906101000a900460ff1660038111156107a1576107a0611426565b5b145b156108db5760008082815260200190815260200160002060000160000160009054906101000a900473ffffffffffffffffffffffffffffffffffffffff1673ffffffffffffffffffffffffffffffffffffffff166108fc600080848152602001908152602001600020600001600101549081150290604051600060405180830381858888f1935050505015801561083e573d6000803e3d6000fd5b5060008082815260200190815260200160002060030160000160009054906101000a900473ffffffffffffffffffffffffffffffffffffffff1673ffffffffffffffffffffffffffffffffffffffff166108fc600080848152602001908152602001600020600301600101549081150290604051600060405180830381858888f193505050501580156108d5573d6000803e3d6000fd5b50610be2565b600060038111156108ef576108ee611426565b5b60008083815260200190815260200160002060000160020160019054906101000a900460ff16600381111561092757610926611426565b5b14156109c65760008082815260200190815260200160002060000160000160009054906101000a900473ffffffffffffffffffffffffffffffffffffffff1673ffffffffffffffffffffffffffffffffffffffff166108fc600080848152602001908152602001600020600601549081150290604051600060405180830381858888f193505050501580156109c0573d6000803e3d6000fd5b50610be1565b600060038111156109da576109d9611426565b5b60008083815260200190815260200160002060030160020160019054906101000a900460ff166003811115610a1257610a11611426565b5b1415610ab15760008082815260200190815260200160002060030160000160009054906101000a900473ffffffffffffffffffffffffffffffffffffffff1673ffffffffffffffffffffffffffffffffffffffff166108fc600080848152602001908152602001600020600601549081150290604051600060405180830381858888f19350505050158015610aab573d6000803e3d6000fd5b50610be0565b60008082815260200190815260200160002060000160000160009054906101000a900473ffffffffffffffffffffffffffffffffffffffff1673ffffffffffffffffffffffffffffffffffffffff166108fc600080848152602001908152602001600020600001600101549081150290604051600060405180830381858888f19350505050158015610b47573d6000803e3d6000fd5b5060008082815260200190815260200160002060030160000160009054906101000a900473ffffffffffffffffffffffffffffffffffffffff1673ffffffffffffffffffffffffffffffffffffffff166108fc600080848152602001908152602001600020600301600101549081150290604051600060405180830381858888f19350505050158015610bde573d6000803e3d6000fd5b505b5b5b600260008083815260200190815260200160002060070160006101000a81548160ff02191690836003811115610c1b57610c1a611426565b5b021790555050565b600080600083815260200190815260200160002060000160020160009054906101000a900460ff166002811115610c5d57610c5c611426565b5b9050600080600084815260200190815260200160002060030160020160009054906101000a900460ff166002811115610c9957610c98611426565b5b9050600160008085815260200190815260200160002060070160006101000a81548160ff02191690836003811115610cd457610cd3611426565b5b02179055508060ff168260ff161415610d6e57600260008085815260200190815260200160002060000160020160016101000a81548160ff02191690836003811115610d2357610d22611426565b5b0217905550600260008085815260200190815260200160002060030160020160016101000a81548160ff02191690836003811115610d6457610d63611426565b5b0217905550610f09565b8160ff166003600183610d8191906112b3565b610d8b9190611397565b60ff161415610e1b57600080600085815260200190815260200160002060000160020160016101000a81548160ff02191690836003811115610dd057610dcf611426565b5b0217905550600160008085815260200190815260200160002060030160020160016101000a81548160ff02191690836003811115610e1157610e10611426565b5b0217905550610f08565b8060ff166003600184610e2e91906112b3565b610e389190611397565b60ff161415610ec857600160008085815260200190815260200160002060000160020160016101000a81548160ff02191690836003811115610e7d57610e7c611426565b5b0217905550600080600085815260200190815260200160002060030160020160016101000a81548160ff02191690836003811115610ebe57610ebd611426565b5b0217905550610f07565b600360008085815260200190815260200160002060070160006101000a81548160ff02191690836003811115610f0157610f00611426565b5b02179055505b5b5b7f32581b4a657d973aecfbcd8214a11003d3f37ccfd596cece91d02ea919dd38f583838360008088815260200190815260200160002060070160009054906101000a900460ff166003811115610f6257610f61611426565b5b604051610f7294939291906111c2565b60405180910390a1505050565b6000610f92610f8d8461122c565b611207565b905082815260208101848484011115610fae57610fad611489565b5b610fb9848285611357565b509392505050565b600081359050610fd0816114a9565b92915050565b600082601f830112610feb57610fea611484565b5b8135610ffb848260208601610f7f565b91505092915050565b600081359050611013816114b9565b92915050565b600080604083850312156110305761102f611493565b5b600061103e85828601610fc1565b925050602083013567ffffffffffffffff81111561105f5761105e61148e565b5b61106b85828601610fd6565b9150509250929050565b60006020828403121561108b5761108a611493565b5b600061109984828501611004565b91505092915050565b600080604083850312156110b9576110b8611493565b5b60006110c785828601611004565b92505060206110d885828601610fc1565b9150509250929050565b6110eb81611321565b82525050565b6110fa8161130a565b82525050565b61110981611314565b82525050565b600060a08201905061112460008301886110e2565b61113160208301876110f1565b61113e6040830186611100565b61114b6060830185611100565b61115860808301846110f1565b9695505050505050565b600060208201905061117760008301846110f1565b92915050565b600060808201905061119260008301876110f1565b61119f6020830186611100565b6111ac6040830185611100565b6111b960608301846110f1565b95945050505050565b60006080820190506111d760008301876110f1565b6111e46020830186611100565b6111f16040830185611100565b6111fe6060830184611100565b95945050505050565b6000611211611222565b905061121d8282611366565b919050565b6000604051905090565b600067ffffffffffffffff82111561124757611246611455565b5b61125082611498565b9050602081019050919050565b60006112688261130a565b91506112738361130a565b9250827fffffffffffffffffffffffffffffffffffffffffffffffffffffffffffffffff038211156112a8576112a76113c8565b5b828201905092915050565b60006112be82611314565b91506112c983611314565b92508260ff038211156112df576112de6113c8565b5b828201905092915050565b600073ffffffffffffffffffffffffffffffffffffffff82169050919050565b6000819050919050565b600060ff82169050919050565b600061132c82611333565b9050919050565b600061133e82611345565b9050919050565b6000611350826112ea565b9050919050565b82818337600083830152505050565b61136f82611498565b810181811067ffffffffffffffff8211171561138e5761138d611455565b5b80604052505050565b60006113a282611314565b91506113ad83611314565b9250826113bd576113bc6113f7565b5b828206905092915050565b7f4e487b7100000000000000000000000000000000000000000000000000000000600052601160045260246000fd5b7f4e487b7100000000000000000000000000000000000000000000000000000000600052601260045260246000fd5b7f4e487b7100000000000000000000000000000000000000000000000000000000600052602160045260246000fd5b7f4e487b7100000000000000000000000000000000000000000000000000000000600052604160045260246000fd5b600080fd5b600080fd5b600080fd5b600080fd5b6000601f19601f8301169050919050565b600381106114b657600080fd5b50565b6114c28161130a565b81146114cd57600080fd5b5056fea26469706673582212200811d7ef1b10cf4e792ee69c70876c1cf614d66cadacec964c321c034bf440a464736f6c63430008070033",
  "immutableReferences": {},
  "source": "//SPDX-License-Identifier: MIT\npragma solidity ^0.8.7;\n\ncontract RPSBACKUP {\n    constructor() payable {}\n\n    enum Hand {\n        rock,\n        paper,\n        scissors\n    }\n\n    enum PlayerStatus {\n        WIN,\n        LOSE,\n        TIE,\n        PENDING\n    }\n\n    enum GameStatus {\n        NOT_STARTED,\n        STARTED,\n        COMPLETE,\n        ERROR\n    }\n\n    struct Player {\n        address payable addr;\n        uint256 betAmount;\n        Hand hand;\n        PlayerStatus status;\n    }\n\n    struct Game {\n        Player originator;\n        Player taker;\n        uint256 betAmount;\n        GameStatus status;\n    }\n\n    mapping(uint256 => Game) rooms;\n    uint256 roomLen = 0;\n\n    modifier isValidHand(Hand _hand) {\n        require(\n            (_hand == Hand.rock) ||\n                (_hand == Hand.paper) ||\n                (_hand == Hand.scissors)\n        );\n        _;\n    }\n\n    event CreateRoomLog(\n        address addr,\n        uint256 betAmount,\n        uint8 hand,\n        uint8 status,\n        uint256 roomNum\n    );\n\n    function createRoom(Hand _hand, string memory password)\n        public\n        payable\n        isValidHand(_hand)\n        returns (uint256 roomNum)\n    {\n        rooms[roomLen] = Game({\n            originator: Player({\n                addr: payable(msg.sender),\n                betAmount: msg.value,\n                hand: _hand,\n                status: PlayerStatus.PENDING\n            }),\n            taker: Player({\n                addr: payable(msg.sender),\n                betAmount: 0,\n                hand: Hand.rock,\n                status: PlayerStatus.PENDING\n            }),\n            betAmount: msg.value,\n            status: GameStatus.NOT_STARTED\n        });\n        roomNum = roomLen;\n        roomLen = roomLen + 1;\n        emit CreateRoomLog(\n            payable(msg.sender),\n            msg.value,\n            uint8(_hand),\n            uint8(PlayerStatus.PENDING),\n            roomNum\n        );\n\n        return roomNum;\n    }\n\n    event JoinRoomLog(\n        uint256 roomNum,\n        uint8 hand,\n        uint8 status,\n        uint256 betAmount\n    );\n\n    function joinRoom(uint256 roomNum, Hand _hand)\n        public\n        payable\n        isValidHand(_hand)\n    {\n        rooms[roomNum].taker = Player({\n            addr: payable(msg.sender),\n            betAmount: msg.value,\n            hand: _hand,\n            status: PlayerStatus.PENDING\n        });\n\n        rooms[roomNum].betAmount =\n            rooms[roomNum].originator.betAmount +\n            msg.value;\n\n        emit JoinRoomLog(\n            roomNum,\n            uint8(_hand),\n            uint8(rooms[roomNum].taker.status),\n            uint256(rooms[roomNum].betAmount)\n        );\n\n        compareHands(roomNum);\n    }\n\n    event CompareHandsLog(\n        uint256 roomNum,\n        uint8 originatorHand,\n        uint8 takerHand,\n        uint8 roomStatus\n    );\n\n    function compareHands(uint256 roomNum) private {\n        uint8 originatorHand = uint8(rooms[roomNum].originator.hand);\n        uint8 takerHand = uint8(rooms[roomNum].taker.hand);\n\n        rooms[roomNum].status = GameStatus.STARTED;\n\n        if (originatorHand == takerHand) {\n            rooms[roomNum].originator.status = PlayerStatus.TIE;\n            rooms[roomNum].taker.status = PlayerStatus.TIE;\n        } else if ((takerHand + 1) % 3 == originatorHand) {\n            // 방장 승리\n            rooms[roomNum].originator.status = PlayerStatus.WIN;\n            rooms[roomNum].taker.status = PlayerStatus.LOSE;\n        } else if ((originatorHand + 1) % 3 == takerHand) {\n            // 참가자 승리\n            rooms[roomNum].originator.status = PlayerStatus.LOSE;\n            rooms[roomNum].taker.status = PlayerStatus.WIN;\n        } else {\n            rooms[roomNum].status = GameStatus.ERROR;\n        }\n\n        emit CompareHandsLog(\n            roomNum,\n            originatorHand,\n            takerHand,\n            uint8(rooms[roomNum].status)\n        );\n    }\n\n    modifier isPlayer(uint256 roomNum, address sender) {\n        require(\n            sender == rooms[roomNum].originator.addr ||\n                sender == rooms[roomNum].taker.addr\n        );\n        _;\n    }\n\n    function payout(uint256 roomNum) public payable {\n        if (\n            rooms[roomNum].originator.status == PlayerStatus.TIE &&\n            rooms[roomNum].taker.status == PlayerStatus.TIE\n        ) {\n            rooms[roomNum].originator.addr.transfer(\n                rooms[roomNum].originator.betAmount\n            );\n            rooms[roomNum].taker.addr.transfer(rooms[roomNum].taker.betAmount);\n        } else {\n            if (rooms[roomNum].originator.status == PlayerStatus.WIN) {\n                rooms[roomNum].originator.addr.transfer(\n                    rooms[roomNum].betAmount\n                );\n            } else if (rooms[roomNum].taker.status == PlayerStatus.WIN) {\n                rooms[roomNum].taker.addr.transfer(rooms[roomNum].betAmount);\n            } else {\n                rooms[roomNum].originator.addr.transfer(\n                    rooms[roomNum].originator.betAmount\n                );\n                rooms[roomNum].taker.addr.transfer(\n                    rooms[roomNum].taker.betAmount\n                );\n            }\n        }\n        rooms[roomNum].status = GameStatus.COMPLETE; // 게임이 종료되었으므로 게임 상태 변경\n    }\n}\n",
  "sourcePath": "/mnt/e/dev/RPS/contracts/RPS_backup.sol",
  "compiler": {
    "name": "solc",
    "version": "0.8.7+commit.e28d00a7.Emscripten.clang"
  },
  "schemaVersion": "3.1.0",
  "updatedAt": "2021-12-13T10:31:05.337Z",
  "devdoc": {
    "kind": "dev",
    "methods": {},
    "version": 1
  },
  "userdoc": {
    "kind": "user",
    "methods": {},
    "version": 1
  }
}